:020000040800F2
:100000007007002089010008AB130008AD1200083A
:10001000A91300088F0200087B16000800000000EA
:10002000000000000000000000000000AF13000806
:100030009D02000800000000AD130008B113000885
:10004000A3010008A3010008A3010008A301000800
:10005000A3010008A3010008A3010008A3010008F0
:10006000A3010008A3010008A3010008A3010008E0
:10007000A3010008A301000891020008A3010008E1
:10008000A3010008A3010008A3010008A3010008C0
:10009000A3010008A3010008A3010008A3010008B0
:1000A000A3010008A3010008A3010008A3010008A0
:1000B00015140008A3010008A3010008A30100080B
:1000C000A3010008A3010008A3010008A301000880
:1000D000A3010008A3010008A3010008A301000870
:1000E000A3010008A3010008A301000800F002F822
:1000F00000F03AF80AA090E8000C82448344AAF188
:100100000107DA4501D100F02FF8AFF2090EBAE885
:100110000F0013F0010F18BFFB1A43F0010318473B
:10012000141B0000341B0000103A24BF78C878C1AB
:10013000FAD8520724BF30C830C144BF04680C60ED
:10014000704700000023002400250026103A28BF35
:1001500078C1FBD8520728BF30C148BF0B60704739
:100160001FB51FBD10B510BD00F058F81146FFF7C0
:10017000F7FF01F093FA00F076F803B4FFF7F2FF0F
:1001800003BC00F07DF8000009488047094800479B
:10019000FEE7FEE7FEE7FEE7FEE7FEE7FEE7FEE737
:1001A000FEE7FEE704480549054A064B7047000094
:1001B00013140008ED0000087001002070070020F3
:1001C00070030020700300204FF0000200B51346BA
:1001D00094469646203922BFA0E80C50A0E80C5067
:1001E000B1F12001BFF4F7AF090728BFA0E80C5018
:1001F00048BF0CC05DF804EB890028BF40F8042B11
:1002000008BF704748BF20F8022B11F0804F18BF7D
:1002100000F8012B7047704770477047754600F033
:100220002BF8AE4605006946534620F00700854688
:1002300018B020B5FFF7B6FFBDE820404FF000062C
:100240004FF000074FF000084FF0000B21F00701BE
:10025000AC46ACE8C009ACE8C009ACE8C009ACE801
:10026000C0098D46704710B50446AFF300802046A4
:10027000BDE81040FFF781BF004870471001002023
:1002800001491820ABBEFEE7260002007047FEE7DA
:10029000014800F007B80000CC000020704772B69B
:1002A000FEE700002DE9F05FC16B0C6801680B6888
:1002B000D0F840C0042202FA0CF2494DDFF824A124
:1002C000494E4A4FDFF828B1DFF828E122422CD00E
:1002D0005A072AD50A68920603D40A6822F0040253
:1002E0000A600168A94201D1042219E0514501D1F7
:1002F000402215E0B14202D14FF4806210E0B942D1
:1003000002D14FF480420BE0594502D14FF48022D4
:1003100006E0714502D14FF4800201E04FF08062A7
:100320002F4908394A60C16A3BE04FF0020808FAD9
:100330000CF818EA040F4FF000094FF0010235D015
:100340005FEA837832D50B689B0605D40B6823F0EF
:100350000A030B6080F821200168A94201D1022222
:1003600019E0514501D1202215E0B14202D14FF4EC
:10037000007210E0B94202D14FF400520BE059452F
:1003800002D14FF4003206E0714502D14FF4001261
:1003900001E04FF00072124908394A6080F820905D
:1003A000816A00291AD0BDE8F05F0847082505FAE0
:1003B0000CF5254212D01B0710D50B6823F00E0355
:1003C0000B6090F84010C36B02FA01F15960826330
:1003D00080F8212080F82090016BE2E7BDE8F09FD3
:1003E000080002401C00024030000240440002406D
:1003F000580002406C00024030B528B308C81349C9
:1004000014221944B1FBF2F18900C16310498163E0
:10041000022141771A6843F6F0718A43D0E900144B
:100420002143D0E902452C43214304692143446917
:100430002143846921431143196000214163012252
:1004400042770177084630BD012030BDF8FFFDBF7F
:10045000000002402DE9F84FDFF8B8910024A9F11F
:10046000040B23460F2709F1040AABF1040EC9E07F
:100470000125A5402A40AA427DD1674ED1F804C08B
:10048000ACEB0608B44532D014DCBCF1030F3AD013
:1004900009DCBCF1000F2AD0BCF1010F1CD0BCF16B
:1004A000020F31D11DE0BCF1110F17D0BCF1120FBA
:1004B0002AD119E0B8F5881F19D006DCB8F5803FBD
:1004C00015D0B8F5801F1FD111E0B8F5001F0ED070
:1004D000B8F5041F18D10AE0CB6815E0CB681B1DE6
:1004E00012E0CB6808330FE0CB680C330CE08B686C
:1004F0002BB1012B4FF0080303D0456104E0042326
:1005000002E0056100E00023FF2A01D8064601E071
:1005100000F104064FEA840501D9A5F12005D6F8BB
:10052000008007FA05FC28EA0C0803FA05F548EAFA
:100530000508C6F800804D68ED0062D5374DAE69FC
:1005400046F00106AE61AD6924F0030605F0010531
:100550000095334D06EB050CDCF80850A607360F66
:1005600007FA06F825EA0805DFF8B880404503D108
:100570004FF0000817E044E0DFF8AC80404502D1BE
:100580004FF001080FE0DFF8A480404502D14FF0A2
:10059000020808E0DFF89880404502D14FF00308D8
:1005A00001E04FF0040808FA06F848EA0508CCF81C
:1005B00008804D68D9F80060ED024D4601D516431C
:1005C00000E096432E604D68DAF80060AD025546B3
:1005D00001D5164300E096432E604D68DBF80060BD
:1005E000AD035D4601D5164300E096432E604D688D
:1005F000DEF80060ED03754601D5164300E0964332
:100600002E60641C0D682A46E5407FF431AFBDE8DA
:10061000F88F000008040140000011100010024093
:100620000000014000080140000C014000100140A2
:100630000014014001488068704700002C00002031
:100640000248816802781144816070472C000020C4
:10065000074810B5016841F010010160032000F067
:1006600075F80F2000F006F800F024F8002010BD07
:100670000020024070B50D4D04464FF47A71287881
:10068000B1FBF0F00A490968B1FBF0F000F0DCFAC8
:1006900048B9102C07D200222146501E00F036F82F
:1006A00000206C6070BD012070BD00002C00002097
:1006B000380000200C4808B5816941F001018161D2
:1006C000816901F001010091C16941F08051C1616E
:1006D000C06900F0805000900448416821F0E0615A
:1006E00041F00071416008BD00100240000001406F
:1006F000002809DB00F01F02012191404009800021
:1007000000F1E020C0F8001170470000F0B40E4B7B
:100710001B680C46C3F30223C3F10705042D00D95F
:100720000425191D072901D2002300E0DB1E012644
:1007300006FA05F1491E214099409E40761E16405A
:100740003143F0BC00F09ABF0CED00E0064900F028
:10075000070208684FF6FF03184040EA0220034AE8
:1007600010430860704700000CED00E00000FA053F
:100770002DE9F0470F46050061D0434E306800F088
:100780000700B84209D2306820F0070038433060D3
:10079000306800F00700B84251D128683B4C81070F
:1007A00012D5400703D5606840F4E06060602878A7
:1007B000000703D5606840F4605060606068A96815
:1007C00020F0F000084360602878C00728D06868EF
:1007D000012810D02168022810D0890700292EDABC
:1007E000616821F0030101436160FFF723FF804648
:1007F00041F288390DE021688903EFE78901EDE7CF
:10080000FFF718FFA0EB0801494502D90320BDE816
:10081000F0876068696800F00C00B0EB810FEFD1E1
:10082000306800F00700B8420BD9306820F00700AC
:1008300038433060306800F00700B84201D0012032
:10084000E5E72878400705D56068E96820F4E060AE
:10085000084360602878000706D56068296920F49D
:10086000605040EAC100606000F038F86168084AF2
:10087000C1F30311515CC84006490860064800688E
:10088000FFF7F8FE0020C2E70020024000100240FF
:100890001C1C0008380000203000002004480549D6
:1008A00000684968044AC1F30221515CC84070479E
:1008B00038000020001002402C1C000804480549A4
:1008C00000684968044AC1F3C221515CC8407047BE
:1008D00038000020001002402C1C00080E4A51680D
:1008E0000E4801F00C03042B11D0082B0FD10C483B
:1008F000C1F38343C903C05C0AD55168084AC1F3F8
:100900004041921E515C054A5043B0FBF1F07047E4
:1009100004494843704700000010024000127A006A
:100920000C1C000800093D002DE9F84F040070D0B0
:100930002078C04DC00749D06868C0F38100012805
:1009400007D06868C0F38100022809D16868C00335
:1009500006D52868800339D560680028E7D035E0DF
:100960006068B0F5803F0BD010B1B0F5A02F11D06A
:10097000286820F480302860286820F4802002E075
:10098000286840F480302860606890B1FFF752FE1C
:1009900006460AE0286840F480202860F0E700BF9F
:1009A000FFF748FE801B642873D828688003F7D5BA
:1009B0000CE0FFF73FFE064605E000BFFFF73AFEFA
:1009C000801B6428F0D828688003F7D420789A4EDA
:1009D00080074FF001094FF0000839D5686810F022
:1009E0000C0F07D06868C0F38100022809D168683D
:1009F000C00306D42868800714D52069012808D1CF
:100A000010E02069B0B1C6F80090FFF713FE07466A
:100A100005E00AE1FFF70EFEC01B0228C4D82868D3
:100A20008007F7D52868616920F0F80040EAC10026
:100A300028600DE0C6F80080FFF7FCFD074604E0E3
:100A4000FFF7F8FDC01B022823D828688007F7D4D9
:100A5000207800072CD57948A169D9B1C0F8009059
:100A6000FFF7E8FD074604E0FFF7E4FDC01B02289E
:100A70000FD8686A8007F7D571484FF4FA510068BB
:100A8000B0FBF1F0009000BF0098411E0091FAD237
:100A90000EE080E0C0F80080FFF7CCFD074604E0E0
:100AA000FFF7C8FDC01B022875D8686A8007F7D415
:100AB0002078400760D5E8690027C00008D4E869BD
:100AC00040F08050E861E869012700F08050009014
:100AD0005C480168C90513D40168834641F48071FC
:100AE0000160FFF7A7FD824606E000BFFFF7A2FD09
:100AF000A0EB0A0064284ED8DBF80000C005F5D54D
:100B0000E06801280AD008B1052813D0286A20F02F
:100B100001002862286A20F0040002E0286A40F000
:100B200001002862E06841F2883B98B1FFF782FD3E
:100B300082460BE0286A40F004002862EEE700BF1E
:100B4000FFF778FDA0EB0A0159455AD8286A8007BB
:100B5000F6D50CE0FFF76EFD824605E0FFF76AFD73
:100B6000A0EB0A0159454CD8286A8007F6D41FB17A
:100B7000E86920F08050E861E06988B36968C1F3F2
:100B80008101022944D00228C6F8608004D0FFF712
:100B900051FD044638E034E0FFF74CFD074604E021
:100BA000FFF748FDC01B02282BD828688001F7D426
:100BB000206AB0F5803F05D16868A16820F4003054
:100BC00008436860D4E908010843696821F4741196
:100BD00008436860C6F86090FFF72CFD044606E005
:100BE00025E000BFFFF726FD001B022809D8286872
:100BF0008001F7D51BE000BFFFF71CFD001B02289A
:100C000002D90320BDE8F88F28688001F4D40EE0F3
:100C10000128F7D06868226A00F48031914204D13B
:100C2000616A00F47010884201D00120EAE70020D8
:100C3000E8E7000000100240000042428004424207
:100C4000380000200070004010B5401EB0F1807FD9
:100C500001D3012010BD4FF0E02460610F21601727
:100C600000F00CFD0020A06107202061002010BDD5
:100C70007047704770B590F83C20012A26D00124B7
:100C800080F83C40022280F83D2003685A689D6845
:100C900022F070060A6832435A600D4B02689A428D
:100CA00008D0B2F1804F05D00A4B9A4202D00A4BCD
:100CB0009A4204D1496825F080031943916080F875
:100CC0003D40002180F83C10084670BD022070BDF8
:100CD000002C0140000400400008004010B5040052
:100CE00003D094F83D0010B107E0012010BD0020B2
:100CF00084F83C00204600F01FF8022084F83D00F4
:100D0000211D206800F08CFB012084F8460084F847
:100D10003E0084F83F0084F8400084F8410084F8E5
:100D2000420084F8430084F8440084F8450084F8C5
:100D30003D00002010BD000008B50068B0F1804FF4
:100D400012D10A48C16941F00101C161C0690022A4
:100D500000F00100009011461C20FFF7D7FCBDE811
:100D600008401C20FFF7C4BC08BD00000010024072
:100D700090F83D10012901D001207047022180F830
:100D80003D100168CA6842F00102CA6000680B4960
:100D9000884208D0B0F1804F05D00949884202D07E
:100DA0000849884204D1816801F00701062903D06F
:100DB000016841F00101016000207047002C0140F2
:100DC000000400400008004070B5044690F83C0064
:100DD0000025012817D0012684F83C60022084F801
:100DE0003D002068826822F0770222F47F42826010
:100DF0000868502838D00DDC20284FD005DC90B38F
:100E0000102811D14AE0022070BD302846D0402879
:100E10000AD13BE060282FD070280DD0B0F5805F5C
:100E200003D0B0F5005F12D0012584F83D600020AA
:100E300084F83C00284670BDCB68D1E901212068C8
:100E400000F02AFB2068816841F0770109E0CB6857
:100E5000D1E90121206800F01FFB2068816841F47E
:100E600080418160E1E719E0CA684968206800F0C4
:100E700025FB5021206806E0CA684968206800F018
:100E80002EFB6021206800F011FBCEE7CA6849689C
:100E9000206800F013FB40212068F4E72268014637
:100EA0001046F0E770472DE9F04104460068C66837
:100EB00005694FF00007A90713D5B10711D5F91E31
:100EC000016101202077206880698007204602D0D8
:100ED000FFF7E8FF04E000F07EF8204600F07CF821
:100EE0002777680716D5700714D521686FF00400BE
:100EF0000861022020772068806910F4407F204636
:100F000002D0FFF7CFFF04E000F065F8204600F0C4
:100F100063F82777280715D5300713D521686FF0B8
:100F200008000861042020772068C06980072046F7
:100F300002D0FFF7B7FF04E000F04DF8204600F0C4
:100F40004BF82777E80616D5F00614D521686FF020
:100F500010000861082020772068C06910F4407FE5
:100F6000204602D0FFF79EFF04E000F034F8204650
:100F700000F032F82777E80708D0F00706D021689C
:100F80006FF001000861204600F028F8280608D517
:100F9000300606D521686FF0800008612046FFF713
:100FA00067FE680608D5700606D521686FF0400018
:100FB0000861204600F0A6F8A8060AD5B00608D5B4
:100FC00021686FF0200008612046BDE8F041FFF77E
:100FD00050BEBDE8F0817047704700002DE9FC412C
:100FE000404C4148216800F09BFD404F606206463E
:100FF000B846216A00F094FD394600F0CFFBA062AC
:101000003B4926F00040E76900F08AFC0DD23948E0
:10101000A5F50005854209D24146606A00F0B4FC9E
:10102000E16900F04DFBE06100E0E761A16AA069C1
:1010300000F0AAFC0746E169606900F0A5FC616A5E
:1010400005460E46206900F09FFC294600F038FB5B
:10105000394600F035FB2849054610F1FF4F01D312
:10106000002502E08D4200DD0D46616828460F46EE
:1010700000F056FD4FF07E5100F052FD1F4900F088
:101080008DFB4146A06000F07FFC394600F018FB64
:101090004146606000F078FC216800F011FB266298
:1010A000054620604146E06800F00AFBE060002051
:1010B0008DF804008DF8050080208DF806007F2053
:1010C0008DF8070000956423042269460C4800F05F
:1010D0009DF8642304220A4801A900F097F8BDE8AE
:1010E000FC810000000000200000A041CDCCCC3DE0
:1010F0000000A0400000C84100004842000020411C
:1011000084000020704770B5040004D094F84100BA
:10111000002510B106E0012070BD84F84050204643
:1011200000F024F8242084F841002068C16821F4EC
:101130000051C160204600F00BFA2068016921F4DB
:10114000904101612068416921F02A0141612068D4
:10115000C16841F40051C1606564202084F84100F9
:1011600084F842006563002070BD000070B586B051
:1011700000250646009501950295039500681E49D5
:10118000884237D11D49886940F480408861886968
:1011900000F480400490886940F004008861886908
:1011A000174C00F0040004904815009002200190B4
:1011B0000320039069462046FFF74CF92015CDE93E
:1011C0000005694620460295FFF744F90E4C0D488C
:1011D00020601020C4E901058020C4E90305656191
:1011E000A5612046E561FFF707F908B1FFF757F859
:1011F000B463666206B070BD003801400010024062
:101200000008014044000240CC0000202DE9F843D2
:10121000044690F84100984616460D46202802D014
:101220000220BDE8F88385B17EB1002060642120F2
:1012300084F84100FFF7FEF9A6848146E684A068A1
:101240002027B0F5805F02D003E00120E9E72069A4
:1012500010B12E4600250EE000260CE0802120462D
:1012600000F0D2F9A8B9C6B116F8010B21684860A0
:10127000E08C401EE084E08C4B464FF00002CDF83D
:1012800000800028EAD14FF04001204600F0BCF970
:1012900040B184F841700320C3E735F8020BC0F376
:1012A0000800E3E784F841700020BAE7FEE7000099
:1012B000094808B5416941F00101416140690022D6
:1012C00000F00100009011460E20FFF71FFABDE864
:1012D00008400E20FFF70CBA00100240094808B57C
:1012E000816941F020018161816901F02001009153
:1012F000816941F004018161806900F0040000907F
:1013000008BD00000010024010B586B00024174848
:10131000009401940294039404944FF08041059446
:10132000016040F2CF21C0E9011440F2E731C0E989
:1013300003148461FFF7D2FC08B1FEF7B0FF4FF44D
:101340008050009069460948FFF73EFD08B1FEF75E
:10135000A6FF049404A905480594FFF78BFC002818
:1013600001D0FEF79CFF06B010BD00003C0000203D
:101370000C4810B50A4901604FF416514160002134
:1013800081600C22C160C0E904128161C161FFF774
:10139000BAFE002803D0BDE81040FEF780BF10BDA4
:1013A0000038014084000020FEE7FEE770477047E8
:1013B000FFF746B930B58FB028216846FEF704FF25
:1013C00014210AA8FEF700FF01210804CDE900104E
:1013D0000024029402250491CDE907504FF4E01057
:1013E00009906846FFF7A0FA08B172B6FEE70F2031
:1013F000CDE90A054FF48060CDE90C4002210AA82E
:101400000E94FFF7B5F9002801D072B6FEE70FB0D1
:1014100030BD70470148FFF746BD00003C0000208A
:10142000F0B50268194B1A4C1A4D4FF0804798429C
:1014300005D0B84203D0A04201D0A84203D122F087
:1014400070064A683243984205D0B84203D0A042A1
:1014500001D0A84203D122F44074CA6822434C69E7
:1014600022F08002224302608A68C2620A688262B5
:10147000984201D109690163012141610169C907EC
:1014800003D0016921F001010161F0BD002C014090
:10149000000400400008004010B5846842EA0322BE
:1014A00024F47F440A432243826010BD826822F004
:1014B00070020A4342F007018160704710B5036A69
:1014C000046A24F001040462846924F0F00444EA0C
:1014D000021423F00A020A438461026210BD10B5AF
:1014E000036A046A24F010040462846923F0A003F0
:1014F00024F4704444EA023243EA01118261016239
:1015000010BD01680C3151E8002F22F4907241E8BF
:101510000023002BF5D10168143151E8002F22F08F
:10152000010241E80023002BF5D1016B012909D10B
:1015300001680C3151E8002F22F0100241E800232D
:10154000002BF5D1202180F8421000210163704763
:1015500070B5044600680169E26821F44051114306
:1015600001612169A0680843616908432168CA686C
:1015700041F20C639A430243CA6020684169A26940
:1015800021F44071114341611E492068884202D113
:10159000FFF794F901E0FFF781F900EBC00101EBDF
:1015A0000012606864218000B2FBF0F3B3FBF1F33A
:1015B0006FF018067343B2FBF0F5B2FBF0F605EBE3
:1015C0008305322303EB0515B5FBF1F5B6FBF1F608
:1015D00005F0F00505EB0615B2FBF0F6B2FBF0F0F6
:1015E000B0FBF1F06FF01802504306EB800003EB04
:1015F0000010B0FBF1F0216800F00F002844886073
:1016000070BD0000003801402DE9F84398461746A8
:101610000D460446089E24E0701C22D0FFF70AF80D
:10162000A0EB0800B0421AD8CEB12068C1684907C3
:1016300017D5802D15D0402D13D00168C943090757
:101640000FD401680025406800902046FFF759FF3D
:101650000820606484F840500120BDE8F88303202E
:10166000FBE72068006835EA000004D00020B8429B
:10167000D2D00020F1E70120F9E7FEE70907090EC3
:10168000002804DB00F1E02080F80014704700F02F
:101690000F0000F1E02080F8141D7047FEF7D8FF1E
:1016A000FFF788FEFFF71AFEFFF702FEFFF760FE66
:1016B000FFF72AFE0148FFF75BFBFEE73C00002036
:1016C00090EA010F48BF81F0004100F13082421AD8
:1016D0003CBF801A89184FEAD0524FF07F4C1CEA69
:1016E000410FA2EBD15318BF9CEA026F00F03B8080
:1016F0004FF0004C4CEA00204CEA012121FA03FC97
:1017000010EB0C0C1ED202F1FF325FEA1C2040EB02
:10171000C25038BF70471CF07F0F4FEA400C18BF13
:10172000BCF17F4F38BF7047C3F12003994008BF19
:1017300020F00100BCF17F4F38BF7047A0F1C040DE
:1017400000F0E9B94FEA3C00000A40EBC25028BF64
:101750001CF0FF0F4FEA400CE6D018BFBCF17F4FE2
:1017600038BF7047EAE79CEA026F05D010EA5C0FC9
:1017700008BF00F00040704710B500F086F900BFC8
:1017800064FBBE3E401058BFC0F14040491058BFF6
:10179000C1F140418142EFF3008070474FF47F0C6C
:1017A0001CEAD0121EBF1CEAD11392EA0C0F93EA76
:1017B0000C0F00F0858090EA010F48BF42F4807260
:1017C00040F4000C41F400002CF07F4120F07F40F9
:1017D00000B58142A2EB03020FF2081CACEB504EA5
:1017E000C0F100009EF800E04FEA4E0E00FB0EFC38
:1017F00038BF49004FEA2C1C02F5FA020CFB0EF32D
:101800004FEACE1E4FEA112C4FEAC1210EEB635E68
:1018100042EB22420EFB0CFC4FEA1C5300FB03116F
:101820004FEA112C4FEA01310EFB0CFC4FEADC4C65
:1018300000FB0C11C14228BF09184CEB03335DF8C3
:1018400004EB10EB410143EBC250B2F57C0F38BF03
:10185000704729D512F0F00F1CBF00F1C04000F016
:1018600000407047008182838485868788898B8CBD
:101870008D8E8F919293959697999A9C9D9FA0A2F9
:10188000A3A5A7A8AAACAEB0B2B3B5B7B9BCBEC049
:10189000C2C5C7C9CCCED1D4D7D9DCDFE2E6E9ECEA
:1018A000F0F3F7FAFE0000004FEA400C0CF1807CE8
:1018B000BCF17E4F28BF7047B0F1C04000F02BB99B
:1018C00090EA010F0CEAD11348BF42F480726245DE
:1018D00038BF634507D213F47F0F16D080EA0100AA
:1018E00000F00040704710B500F0CFF8097EFC3ED4
:1018F00000F005B880EA010000F00040704780EA7F
:10190000010000F0004000F006B912F47F0F04BFA0
:101910000248704780EA010000F0FDB80000C07F77
:1019200050EA010C00F113801CF5000F58BFBCF504
:10193000000F01D48842704707D710F5000F58BF39
:1019400011F5000F15D488427047894270471CF585
:10195000000F04D5BCF5000FF7D5814270474FF05A
:10196000807C1CEB400F38BF1CEB410F01D2814241
:10197000704710B500F089F8922449004FF00050EC
:101980004FF08051FFF7FEBE4FF47F0C1CEAD012DF
:101990001EBF1CEAD11392EA0C0F93EA0C0F00F061
:1019A000478090EA010F48BF42F480724FF0004C2C
:1019B0004CEA00204CEA012102EB0302A0FB0113D8
:1019C000A2F50002002918BF43F001035B0028BF05
:1019D0004FEA330342EB22425FEA132C4CEBC25036
:1019E0002EBFBCEB436FB2F57C0F70474FEA036C20
:1019F000BCF1004F08BF20F00100B2F57C0F38BFEA
:101A000070470BD582F0FF0212F5803FC8BF7047C8
:101A100000F1C040D8BF00F00040704700F5000C56
:101A20005FEA4C0C48BF7047B0F1C04000F073B89B
:101A300090EA010F0CEAD11348BF42F4807262456C
:101A400038BF634504D280EA010000F000407047CF
:101A500010B500F01AF800BF8900013E00F007B889
:101A600000F009B85FEA410C5FEA1C6C08D080EA1C
:101A7000010000F050B85FEA400C5FEA1C6CF6D140
:101A80004FF00040A0F5800070470EF1020E2EF0DE
:101A9000030E5EF8044B244204D44FEA4102B2F133
:101AA0007F4F11D84FEA4003B3F17F4F0CD80ED1CE
:101AB0004FEAD07CB2F17F4F0CEB4C0C0CF1020CD6
:101AC00008BF4CEBD17C04E04FF0080C01E04FEA7A
:101AD000D17C0CEB4C0324FA03F404F00704B4F1BA
:101AE000040C06D20EEB840CBDE810404CF0010C47
:101AF0006047DFE80CF0070802024FF00040A0F555
:101B0000800010BD0846420018BFD2F1807288BF25
:101B100000F0004010BDFF2141EAD050C0057047E1
:101B200090EA010F48BF81F000413FF5D0AD421A65
:101B300004D882F00042A0EB020011444FEAD052D8
:101B40004FF07F4C1CEA410FA2EBD15318BF9CEA27
:101B5000026F4AD04FF0004C4CEA00204CEA0121C1
:101B600021FA03FCB0EB0C0C0FD412F0FE0F36D0B0
:101B70005FEA4C001DD5001240EBC25038BF7047E1
:101B80001CF03F0F18BF70470BE0A2F101025FEAA3
:101B90001C2040EBC25038BF70471CF07F0F18BFAD
:101BA0007047C3F12003994014BF401E20F001008C
:101BB000704780084FEA122308BF7047B0FA80FCD4
:101BC000A2EB0C02CCF1280C60FA0CF093EA122F75
:101BD00004BF00EBC25070474FEAC3707047130A4E
:101BE0005FEADC1008BF7047F6E79CEA026F04D09A
:101BF00010EA5C0F08BF0020704710B5FFF745FFE3
:101C000040DFF63E81F00040704701020203040508
:101C1000060708090A0B0C0D0E0F1010000000003B
:101C2000000000000102030406070809000000008C
:101C300001020304541C0008000000203C000000C6
:101C400028010008901C00083C0000203407000018
:101C50004401000800000000000000000000000037
:101C600000000000000040419A99993E00000041A8
:101C70000000000000000000000000000000000064
:101C800001000000100000000000000000127A00B7
:04000005080000ED02
:00000001FF
